{
  "_format": "hh-sol-artifact-1",
  "contractName": "GameOnAvatars",
  "sourceName": "contracts/GameOnAvatars.sol",
  "abi": [
    {
      "inputs": [
        {
          "internalType": "string",
          "name": "metadataUrl",
          "type": "string"
        }
      ],
      "stateMutability": "nonpayable",
      "type": "constructor"
    },
    {
      "anonymous": false,
      "inputs": [
        {
          "indexed": true,
          "internalType": "address",
          "name": "owner",
          "type": "address"
        },
        {
          "indexed": true,
          "internalType": "address",
          "name": "approved",
          "type": "address"
        },
        {
          "indexed": true,
          "internalType": "uint256",
          "name": "tokenId",
          "type": "uint256"
        }
      ],
      "name": "Approval",
      "type": "event"
    },
    {
      "anonymous": false,
      "inputs": [
        {
          "indexed": true,
          "internalType": "address",
          "name": "owner",
          "type": "address"
        },
        {
          "indexed": true,
          "internalType": "address",
          "name": "operator",
          "type": "address"
        },
        {
          "indexed": false,
          "internalType": "bool",
          "name": "approved",
          "type": "bool"
        }
      ],
      "name": "ApprovalForAll",
      "type": "event"
    },
    {
      "anonymous": false,
      "inputs": [
        {
          "indexed": false,
          "internalType": "address",
          "name": "sender",
          "type": "address"
        },
        {
          "indexed": false,
          "internalType": "uint256",
          "name": "tokenId",
          "type": "uint256"
        }
      ],
      "name": "AvatarNFTMinted",
      "type": "event"
    },
    {
      "anonymous": false,
      "inputs": [
        {
          "indexed": true,
          "internalType": "address",
          "name": "from",
          "type": "address"
        },
        {
          "indexed": true,
          "internalType": "address",
          "name": "to",
          "type": "address"
        },
        {
          "indexed": true,
          "internalType": "uint256",
          "name": "tokenId",
          "type": "uint256"
        }
      ],
      "name": "Transfer",
      "type": "event"
    },
    {
      "inputs": [],
      "name": "_metadataUrl",
      "outputs": [
        {
          "internalType": "string",
          "name": "",
          "type": "string"
        }
      ],
      "stateMutability": "view",
      "type": "function"
    },
    {
      "inputs": [
        {
          "internalType": "address",
          "name": "to",
          "type": "address"
        },
        {
          "internalType": "uint256",
          "name": "tokenId",
          "type": "uint256"
        }
      ],
      "name": "approve",
      "outputs": [],
      "stateMutability": "nonpayable",
      "type": "function"
    },
    {
      "inputs": [
        {
          "internalType": "address",
          "name": "owner",
          "type": "address"
        }
      ],
      "name": "balanceOf",
      "outputs": [
        {
          "internalType": "uint256",
          "name": "",
          "type": "uint256"
        }
      ],
      "stateMutability": "view",
      "type": "function"
    },
    {
      "inputs": [],
      "name": "checkIfUserHasNFT",
      "outputs": [
        {
          "internalType": "uint256",
          "name": "",
          "type": "uint256"
        }
      ],
      "stateMutability": "view",
      "type": "function"
    },
    {
      "inputs": [
        {
          "internalType": "uint256",
          "name": "tokenId",
          "type": "uint256"
        }
      ],
      "name": "getApproved",
      "outputs": [
        {
          "internalType": "address",
          "name": "",
          "type": "address"
        }
      ],
      "stateMutability": "view",
      "type": "function"
    },
    {
      "inputs": [
        {
          "internalType": "address",
          "name": "owner",
          "type": "address"
        },
        {
          "internalType": "address",
          "name": "operator",
          "type": "address"
        }
      ],
      "name": "isApprovedForAll",
      "outputs": [
        {
          "internalType": "bool",
          "name": "",
          "type": "bool"
        }
      ],
      "stateMutability": "view",
      "type": "function"
    },
    {
      "inputs": [],
      "name": "mintAvatar",
      "outputs": [],
      "stateMutability": "nonpayable",
      "type": "function"
    },
    {
      "inputs": [],
      "name": "name",
      "outputs": [
        {
          "internalType": "string",
          "name": "",
          "type": "string"
        }
      ],
      "stateMutability": "view",
      "type": "function"
    },
    {
      "inputs": [
        {
          "internalType": "address",
          "name": "",
          "type": "address"
        }
      ],
      "name": "nftHolders",
      "outputs": [
        {
          "internalType": "uint256",
          "name": "",
          "type": "uint256"
        }
      ],
      "stateMutability": "view",
      "type": "function"
    },
    {
      "inputs": [
        {
          "internalType": "uint256",
          "name": "tokenId",
          "type": "uint256"
        }
      ],
      "name": "ownerOf",
      "outputs": [
        {
          "internalType": "address",
          "name": "",
          "type": "address"
        }
      ],
      "stateMutability": "view",
      "type": "function"
    },
    {
      "inputs": [
        {
          "internalType": "address",
          "name": "from",
          "type": "address"
        },
        {
          "internalType": "address",
          "name": "to",
          "type": "address"
        },
        {
          "internalType": "uint256",
          "name": "tokenId",
          "type": "uint256"
        }
      ],
      "name": "safeTransferFrom",
      "outputs": [],
      "stateMutability": "nonpayable",
      "type": "function"
    },
    {
      "inputs": [
        {
          "internalType": "address",
          "name": "from",
          "type": "address"
        },
        {
          "internalType": "address",
          "name": "to",
          "type": "address"
        },
        {
          "internalType": "uint256",
          "name": "tokenId",
          "type": "uint256"
        },
        {
          "internalType": "bytes",
          "name": "_data",
          "type": "bytes"
        }
      ],
      "name": "safeTransferFrom",
      "outputs": [],
      "stateMutability": "nonpayable",
      "type": "function"
    },
    {
      "inputs": [
        {
          "internalType": "address",
          "name": "operator",
          "type": "address"
        },
        {
          "internalType": "bool",
          "name": "approved",
          "type": "bool"
        }
      ],
      "name": "setApprovalForAll",
      "outputs": [],
      "stateMutability": "nonpayable",
      "type": "function"
    },
    {
      "inputs": [
        {
          "internalType": "bytes4",
          "name": "interfaceId",
          "type": "bytes4"
        }
      ],
      "name": "supportsInterface",
      "outputs": [
        {
          "internalType": "bool",
          "name": "",
          "type": "bool"
        }
      ],
      "stateMutability": "view",
      "type": "function"
    },
    {
      "inputs": [],
      "name": "symbol",
      "outputs": [
        {
          "internalType": "string",
          "name": "",
          "type": "string"
        }
      ],
      "stateMutability": "view",
      "type": "function"
    },
    {
      "inputs": [
        {
          "internalType": "uint256",
          "name": "_tokenId",
          "type": "uint256"
        }
      ],
      "name": "tokenURI",
      "outputs": [
        {
          "internalType": "string",
          "name": "",
          "type": "string"
        }
      ],
      "stateMutability": "view",
      "type": "function"
    },
    {
      "inputs": [
        {
          "internalType": "address",
          "name": "from",
          "type": "address"
        },
        {
          "internalType": "address",
          "name": "to",
          "type": "address"
        },
        {
          "internalType": "uint256",
          "name": "tokenId",
          "type": "uint256"
        }
      ],
      "name": "transferFrom",
      "outputs": [],
      "stateMutability": "nonpayable",
      "type": "function"
    }
  ],
  "bytecode": "0x60806040523480156200001157600080fd5b5060405162002db038038062002db0833981810160405281019062000037919062000246565b6040518060400160405280600e81526020017f47616d654f6e20417661746172730000000000000000000000000000000000008152506040518060400160405280600381526020017f474f4100000000000000000000000000000000000000000000000000000000008152508160009080519060200190620000bb92919062000124565b508060019080519060200190620000d492919062000124565b505050620000ee60076200010e60201b62000da41760201c565b80600690805190602001906200010692919062000124565b5050620003fb565b6001816000016000828254019250508190555050565b828054620001329062000320565b90600052602060002090601f016020900481019282620001565760008555620001a2565b82601f106200017157805160ff1916838001178555620001a2565b82800160010185558215620001a2579182015b82811115620001a157825182559160200191906001019062000184565b5b509050620001b19190620001b5565b5090565b5b80821115620001d0576000816000905550600101620001b6565b5090565b6000620001eb620001e584620002b4565b6200028b565b9050828152602081018484840111156200020457600080fd5b62000211848285620002ea565b509392505050565b600082601f8301126200022b57600080fd5b81516200023d848260208601620001d4565b91505092915050565b6000602082840312156200025957600080fd5b600082015167ffffffffffffffff8111156200027457600080fd5b620002828482850162000219565b91505092915050565b600062000297620002aa565b9050620002a5828262000356565b919050565b6000604051905090565b600067ffffffffffffffff821115620002d257620002d1620003bb565b5b620002dd82620003ea565b9050602081019050919050565b60005b838110156200030a578082015181840152602081019050620002ed565b838111156200031a576000848401525b50505050565b600060028204905060018216806200033957607f821691505b6020821081141562000350576200034f6200038c565b5b50919050565b6200036182620003ea565b810181811067ffffffffffffffff82111715620003835762000382620003bb565b5b80604052505050565b7f4e487b7100000000000000000000000000000000000000000000000000000000600052602260045260246000fd5b7f4e487b7100000000000000000000000000000000000000000000000000000000600052604160045260246000fd5b6000601f19601f8301169050919050565b6129a5806200040b6000396000f3fe608060405234801561001057600080fd5b506004361061010b5760003560e01c806370a08231116100a2578063a22cb46511610071578063a22cb465146102b8578063b88d4fde146102d4578063c87b56dd146102f0578063c8cf27f414610320578063e985e9c51461033e5761010b565b806370a082311461021c5780637df124a11461024c57806395d89b411461027c57806398a01eb81461029a5761010b565b806323b872dd116100de57806323b872dd146101aa57806342842e0e146101c65780634c42cfcc146101e25780636352211e146101ec5761010b565b806301ffc9a71461011057806306fdde0314610140578063081812fc1461015e578063095ea7b31461018e575b600080fd5b61012a60048036038101906101259190611b10565b61036e565b6040516101379190611f78565b60405180910390f35b610148610450565b6040516101559190611f93565b60405180910390f35b61017860048036038101906101739190611b62565b6104e2565b6040516101859190611ee8565b60405180910390f35b6101a860048036038101906101a39190611ad4565b610567565b005b6101c460048036038101906101bf91906119ce565b61067f565b005b6101e060048036038101906101db91906119ce565b6106df565b005b6101ea6106ff565b005b61020660048036038101906102019190611b62565b6107f1565b6040516102139190611ee8565b60405180910390f35b61023660048036038101906102319190611969565b6108a3565b6040516102439190612175565b60405180910390f35b61026660048036038101906102619190611969565b61095b565b6040516102739190612175565b60405180910390f35b610284610973565b6040516102919190611f93565b60405180910390f35b6102a2610a05565b6040516102af9190611f93565b60405180910390f35b6102d260048036038101906102cd9190611a98565b610a93565b005b6102ee60048036038101906102e99190611a1d565b610c14565b005b61030a60048036038101906103059190611b62565b610c76565b6040516103179190611f93565b60405180910390f35b610328610cb0565b6040516103359190612175565b60405180910390f35b61035860048036038101906103539190611992565b610d10565b6040516103659190611f78565b60405180910390f35b60007f80ac58cd000000000000000000000000000000000000000000000000000000007bffffffffffffffffffffffffffffffffffffffffffffffffffffffff1916827bffffffffffffffffffffffffffffffffffffffffffffffffffffffff1916148061043957507f5b5e139f000000000000000000000000000000000000000000000000000000007bffffffffffffffffffffffffffffffffffffffffffffffffffffffff1916827bffffffffffffffffffffffffffffffffffffffffffffffffffffffff1916145b80610449575061044882610dba565b5b9050919050565b60606000805461045f906123af565b80601f016020809104026020016040519081016040528092919081815260200182805461048b906123af565b80156104d85780601f106104ad576101008083540402835291602001916104d8565b820191906000526020600020905b8154815290600101906020018083116104bb57829003601f168201915b5050505050905090565b60006104ed82610e24565b61052c576040517f08c379a0000000000000000000000000000000000000000000000000000000008152600401610523906120f5565b60405180910390fd5b6004600083815260200190815260200160002060009054906101000a900473ffffffffffffffffffffffffffffffffffffffff169050919050565b6000610572826107f1565b90508073ffffffffffffffffffffffffffffffffffffffff168373ffffffffffffffffffffffffffffffffffffffff1614156105e3576040517f08c379a00000000000000000000000000000000000000000000000000000000081526004016105da90612135565b60405180910390fd5b8073ffffffffffffffffffffffffffffffffffffffff16610602610e90565b73ffffffffffffffffffffffffffffffffffffffff16148061063157506106308161062b610e90565b610d10565b5b610670576040517f08c379a000000000000000000000000000000000000000000000000000000000815260040161066790612055565b60405180910390fd5b61067a8383610e98565b505050565b61069061068a610e90565b82610f51565b6106cf576040517f08c379a00000000000000000000000000000000000000000000000000000000081526004016106c690612155565b60405180910390fd5b6106da83838361102f565b505050565b6106fa83838360405180602001604052806000815250610c14565b505050565b6000610709610cb0565b90506000811461074e576040517f08c379a000000000000000000000000000000000000000000000000000000000815260040161074590612095565b60405180910390fd5b600061075a600761128b565b90506107663382611299565b80600860003373ffffffffffffffffffffffffffffffffffffffff1673ffffffffffffffffffffffffffffffffffffffff168152602001908152602001600020819055506107b46007610da4565b7f4f5603a18444aaa8ccbfda7041afe085cbfb10b5e0111fe0c6eb3f235220668433826040516107e5929190611f4f565b60405180910390a15050565b6000806002600084815260200190815260200160002060009054906101000a900473ffffffffffffffffffffffffffffffffffffffff169050600073ffffffffffffffffffffffffffffffffffffffff168173ffffffffffffffffffffffffffffffffffffffff16141561089a576040517f08c379a0000000000000000000000000000000000000000000000000000000008152600401610891906120b5565b60405180910390fd5b80915050919050565b60008073ffffffffffffffffffffffffffffffffffffffff168273ffffffffffffffffffffffffffffffffffffffff161415610914576040517f08c379a000000000000000000000000000000000000000000000000000000000815260040161090b90612075565b60405180910390fd5b600360008373ffffffffffffffffffffffffffffffffffffffff1673ffffffffffffffffffffffffffffffffffffffff168152602001908152602001600020549050919050565b60086020528060005260406000206000915090505481565b606060018054610982906123af565b80601f01602080910402602001604051908101604052809291908181526020018280546109ae906123af565b80156109fb5780601f106109d0576101008083540402835291602001916109fb565b820191906000526020600020905b8154815290600101906020018083116109de57829003601f168201915b5050505050905090565b60068054610a12906123af565b80601f0160208091040260200160405190810160405280929190818152602001828054610a3e906123af565b8015610a8b5780601f10610a6057610100808354040283529160200191610a8b565b820191906000526020600020905b815481529060010190602001808311610a6e57829003601f168201915b505050505081565b610a9b610e90565b73ffffffffffffffffffffffffffffffffffffffff168273ffffffffffffffffffffffffffffffffffffffff161415610b09576040517f08c379a0000000000000000000000000000000000000000000000000000000008152600401610b0090612015565b60405180910390fd5b8060056000610b16610e90565b73ffffffffffffffffffffffffffffffffffffffff1673ffffffffffffffffffffffffffffffffffffffff16815260200190815260200160002060008473ffffffffffffffffffffffffffffffffffffffff1673ffffffffffffffffffffffffffffffffffffffff16815260200190815260200160002060006101000a81548160ff0219169083151502179055508173ffffffffffffffffffffffffffffffffffffffff16610bc3610e90565b73ffffffffffffffffffffffffffffffffffffffff167f17307eab39ab6107e8899845ad3d59bd9653f200f220920489ca2b5937696c3183604051610c089190611f78565b60405180910390a35050565b610c25610c1f610e90565b83610f51565b610c64576040517f08c379a0000000000000000000000000000000000000000000000000000000008152600401610c5b90612155565b60405180910390fd5b610c70848484846112b7565b50505050565b606060006006610c8584611313565b604051602001610c96929190611ec4565b604051602081830303815290604052905080915050919050565b600080600860003373ffffffffffffffffffffffffffffffffffffffff1673ffffffffffffffffffffffffffffffffffffffff1681526020019081526020016000205490506000811115610d075780915050610d0d565b60009150505b90565b6000600560008473ffffffffffffffffffffffffffffffffffffffff1673ffffffffffffffffffffffffffffffffffffffff16815260200190815260200160002060008373ffffffffffffffffffffffffffffffffffffffff1673ffffffffffffffffffffffffffffffffffffffff16815260200190815260200160002060009054906101000a900460ff16905092915050565b6001816000016000828254019250508190555050565b60007f01ffc9a7000000000000000000000000000000000000000000000000000000007bffffffffffffffffffffffffffffffffffffffffffffffffffffffff1916827bffffffffffffffffffffffffffffffffffffffffffffffffffffffff1916149050919050565b60008073ffffffffffffffffffffffffffffffffffffffff166002600084815260200190815260200160002060009054906101000a900473ffffffffffffffffffffffffffffffffffffffff1673ffffffffffffffffffffffffffffffffffffffff1614159050919050565b600033905090565b816004600083815260200190815260200160002060006101000a81548173ffffffffffffffffffffffffffffffffffffffff021916908373ffffffffffffffffffffffffffffffffffffffff160217905550808273ffffffffffffffffffffffffffffffffffffffff16610f0b836107f1565b73ffffffffffffffffffffffffffffffffffffffff167f8c5be1e5ebec7d5bd14f71427d1e84f3dd0314c0f7b2291e5b200ac8c7c3b92560405160405180910390a45050565b6000610f5c82610e24565b610f9b576040517f08c379a0000000000000000000000000000000000000000000000000000000008152600401610f9290612035565b60405180910390fd5b6000610fa6836107f1565b90508073ffffffffffffffffffffffffffffffffffffffff168473ffffffffffffffffffffffffffffffffffffffff16148061101557508373ffffffffffffffffffffffffffffffffffffffff16610ffd846104e2565b73ffffffffffffffffffffffffffffffffffffffff16145b8061102657506110258185610d10565b5b91505092915050565b8273ffffffffffffffffffffffffffffffffffffffff1661104f826107f1565b73ffffffffffffffffffffffffffffffffffffffff16146110a5576040517f08c379a000000000000000000000000000000000000000000000000000000000815260040161109c90612115565b60405180910390fd5b600073ffffffffffffffffffffffffffffffffffffffff168273ffffffffffffffffffffffffffffffffffffffff161415611115576040517f08c379a000000000000000000000000000000000000000000000000000000000815260040161110c90611ff5565b60405180910390fd5b6111208383836114c0565b61112b600082610e98565b6001600360008573ffffffffffffffffffffffffffffffffffffffff1673ffffffffffffffffffffffffffffffffffffffff168152602001908152602001600020600082825461117b91906122c5565b925050819055506001600360008473ffffffffffffffffffffffffffffffffffffffff1673ffffffffffffffffffffffffffffffffffffffff16815260200190815260200160002060008282546111d2919061223e565b92505081905550816002600083815260200190815260200160002060006101000a81548173ffffffffffffffffffffffffffffffffffffffff021916908373ffffffffffffffffffffffffffffffffffffffff160217905550808273ffffffffffffffffffffffffffffffffffffffff168473ffffffffffffffffffffffffffffffffffffffff167fddf252ad1be2c89b69c2b068fc378daa952ba7f163c4a11628f55a4df523b3ef60405160405180910390a4505050565b600081600001549050919050565b6112b38282604051806020016040528060008152506114c5565b5050565b6112c284848461102f565b6112ce84848484611520565b61130d576040517f08c379a000000000000000000000000000000000000000000000000000000000815260040161130490611fb5565b60405180910390fd5b50505050565b6060600082141561135b576040518060400160405280600181526020017f300000000000000000000000000000000000000000000000000000000000000081525090506114bb565b600082905060005b6000821461138d57808061137690612412565b915050600a826113869190612294565b9150611363565b60008167ffffffffffffffff8111156113cf577f4e487b7100000000000000000000000000000000000000000000000000000000600052604160045260246000fd5b6040519080825280601f01601f1916602001820160405280156114015781602001600182028036833780820191505090505b5090505b600085146114b45760018261141a91906122c5565b9150600a85611429919061245b565b6030611435919061223e565b60f81b818381518110611471577f4e487b7100000000000000000000000000000000000000000000000000000000600052603260045260246000fd5b60200101907effffffffffffffffffffffffffffffffffffffffffffffffffffffffffffff1916908160001a905350600a856114ad9190612294565b9450611405565b8093505050505b919050565b505050565b6114cf83836116b7565b6114dc6000848484611520565b61151b576040517f08c379a000000000000000000000000000000000000000000000000000000000815260040161151290611fb5565b60405180910390fd5b505050565b60006115418473ffffffffffffffffffffffffffffffffffffffff16611885565b156116aa578373ffffffffffffffffffffffffffffffffffffffff1663150b7a0261156a610e90565b8786866040518563ffffffff1660e01b815260040161158c9493929190611f03565b602060405180830381600087803b1580156115a657600080fd5b505af19250505080156115d757506040513d601f19601f820116820180604052508101906115d49190611b39565b60015b61165a573d8060008114611607576040519150601f19603f3d011682016040523d82523d6000602084013e61160c565b606091505b50600081511415611652576040517f08c379a000000000000000000000000000000000000000000000000000000000815260040161164990611fb5565b60405180910390fd5b805181602001fd5b63150b7a0260e01b7bffffffffffffffffffffffffffffffffffffffffffffffffffffffff1916817bffffffffffffffffffffffffffffffffffffffffffffffffffffffff1916149150506116af565b600190505b949350505050565b600073ffffffffffffffffffffffffffffffffffffffff168273ffffffffffffffffffffffffffffffffffffffff161415611727576040517f08c379a000000000000000000000000000000000000000000000000000000000815260040161171e906120d5565b60405180910390fd5b61173081610e24565b15611770576040517f08c379a000000000000000000000000000000000000000000000000000000000815260040161176790611fd5565b60405180910390fd5b61177c600083836114c0565b6001600360008473ffffffffffffffffffffffffffffffffffffffff1673ffffffffffffffffffffffffffffffffffffffff16815260200190815260200160002060008282546117cc919061223e565b92505081905550816002600083815260200190815260200160002060006101000a81548173ffffffffffffffffffffffffffffffffffffffff021916908373ffffffffffffffffffffffffffffffffffffffff160217905550808273ffffffffffffffffffffffffffffffffffffffff16600073ffffffffffffffffffffffffffffffffffffffff167fddf252ad1be2c89b69c2b068fc378daa952ba7f163c4a11628f55a4df523b3ef60405160405180910390a45050565b600080823b905060008111915050919050565b60006118ab6118a6846121b5565b612190565b9050828152602081018484840111156118c357600080fd5b6118ce84828561236d565b509392505050565b6000813590506118e581612913565b92915050565b6000813590506118fa8161292a565b92915050565b60008135905061190f81612941565b92915050565b60008151905061192481612941565b92915050565b600082601f83011261193b57600080fd5b813561194b848260208601611898565b91505092915050565b60008135905061196381612958565b92915050565b60006020828403121561197b57600080fd5b6000611989848285016118d6565b91505092915050565b600080604083850312156119a557600080fd5b60006119b3858286016118d6565b92505060206119c4858286016118d6565b9150509250929050565b6000806000606084860312156119e357600080fd5b60006119f1868287016118d6565b9350506020611a02868287016118d6565b9250506040611a1386828701611954565b9150509250925092565b60008060008060808587031215611a3357600080fd5b6000611a41878288016118d6565b9450506020611a52878288016118d6565b9350506040611a6387828801611954565b925050606085013567ffffffffffffffff811115611a8057600080fd5b611a8c8782880161192a565b91505092959194509250565b60008060408385031215611aab57600080fd5b6000611ab9858286016118d6565b9250506020611aca858286016118eb565b9150509250929050565b60008060408385031215611ae757600080fd5b6000611af5858286016118d6565b9250506020611b0685828601611954565b9150509250929050565b600060208284031215611b2257600080fd5b6000611b3084828501611900565b91505092915050565b600060208284031215611b4b57600080fd5b6000611b5984828501611915565b91505092915050565b600060208284031215611b7457600080fd5b6000611b8284828501611954565b91505092915050565b611b94816122f9565b82525050565b611ba38161230b565b82525050565b6000611bb4826121fb565b611bbe8185612211565b9350611bce81856020860161237c565b611bd781612548565b840191505092915050565b6000611bed82612206565b611bf78185612222565b9350611c0781856020860161237c565b611c1081612548565b840191505092915050565b6000611c2682612206565b611c308185612233565b9350611c4081856020860161237c565b80840191505092915050565b60008154611c59816123af565b611c638186612233565b94506001821660008114611c7e5760018114611c8f57611cc2565b60ff19831686528186019350611cc2565b611c98856121e6565b60005b83811015611cba57815481890152600182019150602081019050611c9b565b838801955050505b50505092915050565b6000611cd8603283612222565b9150611ce382612559565b604082019050919050565b6000611cfb601c83612222565b9150611d06826125a8565b602082019050919050565b6000611d1e602483612222565b9150611d29826125d1565b604082019050919050565b6000611d41601983612222565b9150611d4c82612620565b602082019050919050565b6000611d64602c83612222565b9150611d6f82612649565b604082019050919050565b6000611d87603883612222565b9150611d9282612698565b604082019050919050565b6000611daa602a83612222565b9150611db5826126e7565b604082019050919050565b6000611dcd601583612222565b9150611dd882612736565b602082019050919050565b6000611df0602983612222565b9150611dfb8261275f565b604082019050919050565b6000611e13602083612222565b9150611e1e826127ae565b602082019050919050565b6000611e36602c83612222565b9150611e41826127d7565b604082019050919050565b6000611e59602983612222565b9150611e6482612826565b604082019050919050565b6000611e7c602183612222565b9150611e8782612875565b604082019050919050565b6000611e9f603183612222565b9150611eaa826128c4565b604082019050919050565b611ebe81612363565b82525050565b6000611ed08285611c4c565b9150611edc8284611c1b565b91508190509392505050565b6000602082019050611efd6000830184611b8b565b92915050565b6000608082019050611f186000830187611b8b565b611f256020830186611b8b565b611f326040830185611eb5565b8181036060830152611f448184611ba9565b905095945050505050565b6000604082019050611f646000830185611b8b565b611f716020830184611eb5565b9392505050565b6000602082019050611f8d6000830184611b9a565b92915050565b60006020820190508181036000830152611fad8184611be2565b905092915050565b60006020820190508181036000830152611fce81611ccb565b9050919050565b60006020820190508181036000830152611fee81611cee565b9050919050565b6000602082019050818103600083015261200e81611d11565b9050919050565b6000602082019050818103600083015261202e81611d34565b9050919050565b6000602082019050818103600083015261204e81611d57565b9050919050565b6000602082019050818103600083015261206e81611d7a565b9050919050565b6000602082019050818103600083015261208e81611d9d565b9050919050565b600060208201905081810360008301526120ae81611dc0565b9050919050565b600060208201905081810360008301526120ce81611de3565b9050919050565b600060208201905081810360008301526120ee81611e06565b9050919050565b6000602082019050818103600083015261210e81611e29565b9050919050565b6000602082019050818103600083015261212e81611e4c565b9050919050565b6000602082019050818103600083015261214e81611e6f565b9050919050565b6000602082019050818103600083015261216e81611e92565b9050919050565b600060208201905061218a6000830184611eb5565b92915050565b600061219a6121ab565b90506121a682826123e1565b919050565b6000604051905090565b600067ffffffffffffffff8211156121d0576121cf612519565b5b6121d982612548565b9050602081019050919050565b60008190508160005260206000209050919050565b600081519050919050565b600081519050919050565b600082825260208201905092915050565b600082825260208201905092915050565b600081905092915050565b600061224982612363565b915061225483612363565b9250827fffffffffffffffffffffffffffffffffffffffffffffffffffffffffffffffff038211156122895761228861248c565b5b828201905092915050565b600061229f82612363565b91506122aa83612363565b9250826122ba576122b96124bb565b5b828204905092915050565b60006122d082612363565b91506122db83612363565b9250828210156122ee576122ed61248c565b5b828203905092915050565b600061230482612343565b9050919050565b60008115159050919050565b60007fffffffff0000000000000000000000000000000000000000000000000000000082169050919050565b600073ffffffffffffffffffffffffffffffffffffffff82169050919050565b6000819050919050565b82818337600083830152505050565b60005b8381101561239a57808201518184015260208101905061237f565b838111156123a9576000848401525b50505050565b600060028204905060018216806123c757607f821691505b602082108114156123db576123da6124ea565b5b50919050565b6123ea82612548565b810181811067ffffffffffffffff8211171561240957612408612519565b5b80604052505050565b600061241d82612363565b91507fffffffffffffffffffffffffffffffffffffffffffffffffffffffffffffffff8214156124505761244f61248c565b5b600182019050919050565b600061246682612363565b915061247183612363565b925082612481576124806124bb565b5b828206905092915050565b7f4e487b7100000000000000000000000000000000000000000000000000000000600052601160045260246000fd5b7f4e487b7100000000000000000000000000000000000000000000000000000000600052601260045260246000fd5b7f4e487b7100000000000000000000000000000000000000000000000000000000600052602260045260246000fd5b7f4e487b7100000000000000000000000000000000000000000000000000000000600052604160045260246000fd5b6000601f19601f8301169050919050565b7f4552433732313a207472616e7366657220746f206e6f6e20455243373231526560008201527f63656976657220696d706c656d656e7465720000000000000000000000000000602082015250565b7f4552433732313a20746f6b656e20616c7265616479206d696e74656400000000600082015250565b7f4552433732313a207472616e7366657220746f20746865207a65726f2061646460008201527f7265737300000000000000000000000000000000000000000000000000000000602082015250565b7f4552433732313a20617070726f766520746f2063616c6c657200000000000000600082015250565b7f4552433732313a206f70657261746f7220717565727920666f72206e6f6e657860008201527f697374656e7420746f6b656e0000000000000000000000000000000000000000602082015250565b7f4552433732313a20617070726f76652063616c6c6572206973206e6f74206f7760008201527f6e6572206e6f7220617070726f76656420666f7220616c6c0000000000000000602082015250565b7f4552433732313a2062616c616e636520717565727920666f7220746865207a6560008201527f726f206164647265737300000000000000000000000000000000000000000000602082015250565b7f41766174617220616c7265616479206d696e7465640000000000000000000000600082015250565b7f4552433732313a206f776e657220717565727920666f72206e6f6e657869737460008201527f656e7420746f6b656e0000000000000000000000000000000000000000000000602082015250565b7f4552433732313a206d696e7420746f20746865207a65726f2061646472657373600082015250565b7f4552433732313a20617070726f76656420717565727920666f72206e6f6e657860008201527f697374656e7420746f6b656e0000000000000000000000000000000000000000602082015250565b7f4552433732313a207472616e73666572206f6620746f6b656e2074686174206960008201527f73206e6f74206f776e0000000000000000000000000000000000000000000000602082015250565b7f4552433732313a20617070726f76616c20746f2063757272656e74206f776e6560008201527f7200000000000000000000000000000000000000000000000000000000000000602082015250565b7f4552433732313a207472616e736665722063616c6c6572206973206e6f74206f60008201527f776e6572206e6f7220617070726f766564000000000000000000000000000000602082015250565b61291c816122f9565b811461292757600080fd5b50565b6129338161230b565b811461293e57600080fd5b50565b61294a81612317565b811461295557600080fd5b50565b61296181612363565b811461296c57600080fd5b5056fea264697066735822122001f497fb136289db8244f0b19fb7bc5203f21eee23f4c326086050e20f1e1d4164736f6c63430008040033",
  "linkReferences": {},
  "deployedLinkReferences": {}
}