{
  "_format": "hh-sol-artifact-1",
  "contractName": "GameOnAvatars",
  "sourceName": "contracts/GameOnAvatars.sol",
  "abi": [
    {
      "inputs": [],
      "stateMutability": "nonpayable",
      "type": "constructor"
    },
    {
      "anonymous": false,
      "inputs": [
        {
          "indexed": true,
          "internalType": "address",
          "name": "owner",
          "type": "address"
        },
        {
          "indexed": true,
          "internalType": "address",
          "name": "approved",
          "type": "address"
        },
        {
          "indexed": true,
          "internalType": "uint256",
          "name": "tokenId",
          "type": "uint256"
        }
      ],
      "name": "Approval",
      "type": "event"
    },
    {
      "anonymous": false,
      "inputs": [
        {
          "indexed": true,
          "internalType": "address",
          "name": "owner",
          "type": "address"
        },
        {
          "indexed": true,
          "internalType": "address",
          "name": "operator",
          "type": "address"
        },
        {
          "indexed": false,
          "internalType": "bool",
          "name": "approved",
          "type": "bool"
        }
      ],
      "name": "ApprovalForAll",
      "type": "event"
    },
    {
      "anonymous": false,
      "inputs": [
        {
          "indexed": true,
          "internalType": "address",
          "name": "from",
          "type": "address"
        },
        {
          "indexed": true,
          "internalType": "address",
          "name": "to",
          "type": "address"
        },
        {
          "indexed": true,
          "internalType": "uint256",
          "name": "tokenId",
          "type": "uint256"
        }
      ],
      "name": "Transfer",
      "type": "event"
    },
    {
      "inputs": [
        {
          "internalType": "address",
          "name": "to",
          "type": "address"
        },
        {
          "internalType": "uint256",
          "name": "tokenId",
          "type": "uint256"
        }
      ],
      "name": "approve",
      "outputs": [],
      "stateMutability": "nonpayable",
      "type": "function"
    },
    {
      "inputs": [
        {
          "internalType": "address",
          "name": "owner",
          "type": "address"
        }
      ],
      "name": "balanceOf",
      "outputs": [
        {
          "internalType": "uint256",
          "name": "",
          "type": "uint256"
        }
      ],
      "stateMutability": "view",
      "type": "function"
    },
    {
      "inputs": [],
      "name": "checkIfUserHasNFT",
      "outputs": [
        {
          "internalType": "uint256",
          "name": "",
          "type": "uint256"
        }
      ],
      "stateMutability": "view",
      "type": "function"
    },
    {
      "inputs": [
        {
          "internalType": "uint256",
          "name": "tokenId",
          "type": "uint256"
        }
      ],
      "name": "getApproved",
      "outputs": [
        {
          "internalType": "address",
          "name": "",
          "type": "address"
        }
      ],
      "stateMutability": "view",
      "type": "function"
    },
    {
      "inputs": [
        {
          "internalType": "address",
          "name": "owner",
          "type": "address"
        },
        {
          "internalType": "address",
          "name": "operator",
          "type": "address"
        }
      ],
      "name": "isApprovedForAll",
      "outputs": [
        {
          "internalType": "bool",
          "name": "",
          "type": "bool"
        }
      ],
      "stateMutability": "view",
      "type": "function"
    },
    {
      "inputs": [],
      "name": "mintAvatar",
      "outputs": [],
      "stateMutability": "nonpayable",
      "type": "function"
    },
    {
      "inputs": [],
      "name": "name",
      "outputs": [
        {
          "internalType": "string",
          "name": "",
          "type": "string"
        }
      ],
      "stateMutability": "view",
      "type": "function"
    },
    {
      "inputs": [
        {
          "internalType": "address",
          "name": "",
          "type": "address"
        }
      ],
      "name": "nftHolders",
      "outputs": [
        {
          "internalType": "uint256",
          "name": "",
          "type": "uint256"
        }
      ],
      "stateMutability": "view",
      "type": "function"
    },
    {
      "inputs": [
        {
          "internalType": "uint256",
          "name": "tokenId",
          "type": "uint256"
        }
      ],
      "name": "ownerOf",
      "outputs": [
        {
          "internalType": "address",
          "name": "",
          "type": "address"
        }
      ],
      "stateMutability": "view",
      "type": "function"
    },
    {
      "inputs": [
        {
          "internalType": "address",
          "name": "from",
          "type": "address"
        },
        {
          "internalType": "address",
          "name": "to",
          "type": "address"
        },
        {
          "internalType": "uint256",
          "name": "tokenId",
          "type": "uint256"
        }
      ],
      "name": "safeTransferFrom",
      "outputs": [],
      "stateMutability": "nonpayable",
      "type": "function"
    },
    {
      "inputs": [
        {
          "internalType": "address",
          "name": "from",
          "type": "address"
        },
        {
          "internalType": "address",
          "name": "to",
          "type": "address"
        },
        {
          "internalType": "uint256",
          "name": "tokenId",
          "type": "uint256"
        },
        {
          "internalType": "bytes",
          "name": "_data",
          "type": "bytes"
        }
      ],
      "name": "safeTransferFrom",
      "outputs": [],
      "stateMutability": "nonpayable",
      "type": "function"
    },
    {
      "inputs": [
        {
          "internalType": "address",
          "name": "operator",
          "type": "address"
        },
        {
          "internalType": "bool",
          "name": "approved",
          "type": "bool"
        }
      ],
      "name": "setApprovalForAll",
      "outputs": [],
      "stateMutability": "nonpayable",
      "type": "function"
    },
    {
      "inputs": [
        {
          "internalType": "bytes4",
          "name": "interfaceId",
          "type": "bytes4"
        }
      ],
      "name": "supportsInterface",
      "outputs": [
        {
          "internalType": "bool",
          "name": "",
          "type": "bool"
        }
      ],
      "stateMutability": "view",
      "type": "function"
    },
    {
      "inputs": [],
      "name": "symbol",
      "outputs": [
        {
          "internalType": "string",
          "name": "",
          "type": "string"
        }
      ],
      "stateMutability": "view",
      "type": "function"
    },
    {
      "inputs": [
        {
          "internalType": "uint256",
          "name": "_tokenId",
          "type": "uint256"
        }
      ],
      "name": "tokenURI",
      "outputs": [
        {
          "internalType": "string",
          "name": "",
          "type": "string"
        }
      ],
      "stateMutability": "pure",
      "type": "function"
    },
    {
      "inputs": [
        {
          "internalType": "address",
          "name": "from",
          "type": "address"
        },
        {
          "internalType": "address",
          "name": "to",
          "type": "address"
        },
        {
          "internalType": "uint256",
          "name": "tokenId",
          "type": "uint256"
        }
      ],
      "name": "transferFrom",
      "outputs": [],
      "stateMutability": "nonpayable",
      "type": "function"
    }
  ],
  "bytecode": "0x60806040523480156200001157600080fd5b506040518060400160405280600e81526020017f47616d654f6e20417661746172730000000000000000000000000000000000008152506040518060400160405280600381526020017f474f410000000000000000000000000000000000000000000000000000000000815250816000908051906020019062000096929190620000e5565b508060019080519060200190620000af929190620000e5565b505050620000c96006620000cf60201b62000cb11760201c565b620001fa565b6001816000016000828254019250508190555050565b828054620000f39062000195565b90600052602060002090601f01602090048101928262000117576000855562000163565b82601f106200013257805160ff191683800117855562000163565b8280016001018555821562000163579182015b828111156200016257825182559160200191906001019062000145565b5b50905062000172919062000176565b5090565b5b808211156200019157600081600090555060010162000177565b5090565b60006002820490506001821680620001ae57607f821691505b60208210811415620001c557620001c4620001cb565b5b50919050565b7f4e487b7100000000000000000000000000000000000000000000000000000000600052602260045260246000fd5b612865806200020a6000396000f3fe608060405234801561001057600080fd5b50600436106101005760003560e01c806370a0823111610097578063b88d4fde11610066578063b88d4fde146102ab578063c87b56dd146102c7578063c8cf27f4146102f7578063e985e9c51461031557610100565b806370a08231146102115780637df124a11461024157806395d89b4114610271578063a22cb4651461028f57610100565b806323b872dd116100d357806323b872dd1461019f57806342842e0e146101bb5780634c42cfcc146101d75780636352211e146101e157610100565b806301ffc9a71461010557806306fdde0314610135578063081812fc14610153578063095ea7b314610183575b600080fd5b61011f600480360381019061011a9190611a1d565b610345565b60405161012c9190611dfe565b60405180910390f35b61013d610427565b60405161014a9190611e19565b60405180910390f35b61016d60048036038101906101689190611a6f565b6104b9565b60405161017a9190611d97565b60405180910390f35b61019d600480360381019061019891906119e1565b61053e565b005b6101b960048036038101906101b491906118db565b610656565b005b6101d560048036038101906101d091906118db565b6106b6565b005b6101df6106d6565b005b6101fb60048036038101906101f69190611a6f565b61078f565b6040516102089190611d97565b60405180910390f35b61022b60048036038101906102269190611876565b610841565b6040516102389190611ffb565b60405180910390f35b61025b60048036038101906102569190611876565b6108f9565b6040516102689190611ffb565b60405180910390f35b610279610911565b6040516102869190611e19565b60405180910390f35b6102a960048036038101906102a491906119a5565b6109a3565b005b6102c560048036038101906102c0919061192a565b610b24565b005b6102e160048036038101906102dc9190611a6f565b610b86565b6040516102ee9190611e19565b60405180910390f35b6102ff610bbd565b60405161030c9190611ffb565b60405180910390f35b61032f600480360381019061032a919061189f565b610c1d565b60405161033c9190611dfe565b60405180910390f35b60007f80ac58cd000000000000000000000000000000000000000000000000000000007bffffffffffffffffffffffffffffffffffffffffffffffffffffffff1916827bffffffffffffffffffffffffffffffffffffffffffffffffffffffff1916148061041057507f5b5e139f000000000000000000000000000000000000000000000000000000007bffffffffffffffffffffffffffffffffffffffffffffffffffffffff1916827bffffffffffffffffffffffffffffffffffffffffffffffffffffffff1916145b80610420575061041f82610cc7565b5b9050919050565b60606000805461043690612220565b80601f016020809104026020016040519081016040528092919081815260200182805461046290612220565b80156104af5780601f10610484576101008083540402835291602001916104af565b820191906000526020600020905b81548152906001019060200180831161049257829003601f168201915b5050505050905090565b60006104c482610d31565b610503576040517f08c379a00000000000000000000000000000000000000000000000000000000081526004016104fa90611f7b565b60405180910390fd5b6004600083815260200190815260200160002060009054906101000a900473ffffffffffffffffffffffffffffffffffffffff169050919050565b60006105498261078f565b90508073ffffffffffffffffffffffffffffffffffffffff168373ffffffffffffffffffffffffffffffffffffffff1614156105ba576040517f08c379a00000000000000000000000000000000000000000000000000000000081526004016105b190611fbb565b60405180910390fd5b8073ffffffffffffffffffffffffffffffffffffffff166105d9610d9d565b73ffffffffffffffffffffffffffffffffffffffff161480610608575061060781610602610d9d565b610c1d565b5b610647576040517f08c379a000000000000000000000000000000000000000000000000000000000815260040161063e90611edb565b60405180910390fd5b6106518383610da5565b505050565b610667610661610d9d565b82610e5e565b6106a6576040517f08c379a000000000000000000000000000000000000000000000000000000000815260040161069d90611fdb565b60405180910390fd5b6106b1838383610f3c565b505050565b6106d183838360405180602001604052806000815250610b24565b505050565b60006106e0610bbd565b905060008114610725576040517f08c379a000000000000000000000000000000000000000000000000000000000815260040161071c90611f1b565b60405180910390fd5b60006107316006611198565b905061073d33826111a6565b80600760003373ffffffffffffffffffffffffffffffffffffffff1673ffffffffffffffffffffffffffffffffffffffff1681526020019081526020016000208190555061078b6006610cb1565b5050565b6000806002600084815260200190815260200160002060009054906101000a900473ffffffffffffffffffffffffffffffffffffffff169050600073ffffffffffffffffffffffffffffffffffffffff168173ffffffffffffffffffffffffffffffffffffffff161415610838576040517f08c379a000000000000000000000000000000000000000000000000000000000815260040161082f90611f3b565b60405180910390fd5b80915050919050565b60008073ffffffffffffffffffffffffffffffffffffffff168273ffffffffffffffffffffffffffffffffffffffff1614156108b2576040517f08c379a00000000000000000000000000000000000000000000000000000000081526004016108a990611efb565b60405180910390fd5b600360008373ffffffffffffffffffffffffffffffffffffffff1673ffffffffffffffffffffffffffffffffffffffff168152602001908152602001600020549050919050565b60076020528060005260406000206000915090505481565b60606001805461092090612220565b80601f016020809104026020016040519081016040528092919081815260200182805461094c90612220565b80156109995780601f1061096e57610100808354040283529160200191610999565b820191906000526020600020905b81548152906001019060200180831161097c57829003601f168201915b5050505050905090565b6109ab610d9d565b73ffffffffffffffffffffffffffffffffffffffff168273ffffffffffffffffffffffffffffffffffffffff161415610a19576040517f08c379a0000000000000000000000000000000000000000000000000000000008152600401610a1090611e9b565b60405180910390fd5b8060056000610a26610d9d565b73ffffffffffffffffffffffffffffffffffffffff1673ffffffffffffffffffffffffffffffffffffffff16815260200190815260200160002060008473ffffffffffffffffffffffffffffffffffffffff1673ffffffffffffffffffffffffffffffffffffffff16815260200190815260200160002060006101000a81548160ff0219169083151502179055508173ffffffffffffffffffffffffffffffffffffffff16610ad3610d9d565b73ffffffffffffffffffffffffffffffffffffffff167f17307eab39ab6107e8899845ad3d59bd9653f200f220920489ca2b5937696c3183604051610b189190611dfe565b60405180910390a35050565b610b35610b2f610d9d565b83610e5e565b610b74576040517f08c379a0000000000000000000000000000000000000000000000000000000008152600401610b6b90611fdb565b60405180910390fd5b610b80848484846111c4565b50505050565b60606000610b9383611220565b604051602001610ba39190611d75565b604051602081830303815290604052905080915050919050565b600080600760003373ffffffffffffffffffffffffffffffffffffffff1673ffffffffffffffffffffffffffffffffffffffff1681526020019081526020016000205490506000811115610c145780915050610c1a565b60009150505b90565b6000600560008473ffffffffffffffffffffffffffffffffffffffff1673ffffffffffffffffffffffffffffffffffffffff16815260200190815260200160002060008373ffffffffffffffffffffffffffffffffffffffff1673ffffffffffffffffffffffffffffffffffffffff16815260200190815260200160002060009054906101000a900460ff16905092915050565b6001816000016000828254019250508190555050565b60007f01ffc9a7000000000000000000000000000000000000000000000000000000007bffffffffffffffffffffffffffffffffffffffffffffffffffffffff1916827bffffffffffffffffffffffffffffffffffffffffffffffffffffffff1916149050919050565b60008073ffffffffffffffffffffffffffffffffffffffff166002600084815260200190815260200160002060009054906101000a900473ffffffffffffffffffffffffffffffffffffffff1673ffffffffffffffffffffffffffffffffffffffff1614159050919050565b600033905090565b816004600083815260200190815260200160002060006101000a81548173ffffffffffffffffffffffffffffffffffffffff021916908373ffffffffffffffffffffffffffffffffffffffff160217905550808273ffffffffffffffffffffffffffffffffffffffff16610e188361078f565b73ffffffffffffffffffffffffffffffffffffffff167f8c5be1e5ebec7d5bd14f71427d1e84f3dd0314c0f7b2291e5b200ac8c7c3b92560405160405180910390a45050565b6000610e6982610d31565b610ea8576040517f08c379a0000000000000000000000000000000000000000000000000000000008152600401610e9f90611ebb565b60405180910390fd5b6000610eb38361078f565b90508073ffffffffffffffffffffffffffffffffffffffff168473ffffffffffffffffffffffffffffffffffffffff161480610f2257508373ffffffffffffffffffffffffffffffffffffffff16610f0a846104b9565b73ffffffffffffffffffffffffffffffffffffffff16145b80610f335750610f328185610c1d565b5b91505092915050565b8273ffffffffffffffffffffffffffffffffffffffff16610f5c8261078f565b73ffffffffffffffffffffffffffffffffffffffff1614610fb2576040517f08c379a0000000000000000000000000000000000000000000000000000000008152600401610fa990611f9b565b60405180910390fd5b600073ffffffffffffffffffffffffffffffffffffffff168273ffffffffffffffffffffffffffffffffffffffff161415611022576040517f08c379a000000000000000000000000000000000000000000000000000000000815260040161101990611e7b565b60405180910390fd5b61102d8383836113cd565b611038600082610da5565b6001600360008573ffffffffffffffffffffffffffffffffffffffff1673ffffffffffffffffffffffffffffffffffffffff16815260200190815260200160002060008282546110889190612136565b925050819055506001600360008473ffffffffffffffffffffffffffffffffffffffff1673ffffffffffffffffffffffffffffffffffffffff16815260200190815260200160002060008282546110df91906120af565b92505081905550816002600083815260200190815260200160002060006101000a81548173ffffffffffffffffffffffffffffffffffffffff021916908373ffffffffffffffffffffffffffffffffffffffff160217905550808273ffffffffffffffffffffffffffffffffffffffff168473ffffffffffffffffffffffffffffffffffffffff167fddf252ad1be2c89b69c2b068fc378daa952ba7f163c4a11628f55a4df523b3ef60405160405180910390a4505050565b600081600001549050919050565b6111c08282604051806020016040528060008152506113d2565b5050565b6111cf848484610f3c565b6111db8484848461142d565b61121a576040517f08c379a000000000000000000000000000000000000000000000000000000000815260040161121190611e3b565b60405180910390fd5b50505050565b60606000821415611268576040518060400160405280600181526020017f300000000000000000000000000000000000000000000000000000000000000081525090506113c8565b600082905060005b6000821461129a57808061128390612283565b915050600a826112939190612105565b9150611270565b60008167ffffffffffffffff8111156112dc577f4e487b7100000000000000000000000000000000000000000000000000000000600052604160045260246000fd5b6040519080825280601f01601f19166020018201604052801561130e5781602001600182028036833780820191505090505b5090505b600085146113c1576001826113279190612136565b9150600a8561133691906122cc565b603061134291906120af565b60f81b81838151811061137e577f4e487b7100000000000000000000000000000000000000000000000000000000600052603260045260246000fd5b60200101907effffffffffffffffffffffffffffffffffffffffffffffffffffffffffffff1916908160001a905350600a856113ba9190612105565b9450611312565b8093505050505b919050565b505050565b6113dc83836115c4565b6113e9600084848461142d565b611428576040517f08c379a000000000000000000000000000000000000000000000000000000000815260040161141f90611e3b565b60405180910390fd5b505050565b600061144e8473ffffffffffffffffffffffffffffffffffffffff16611792565b156115b7578373ffffffffffffffffffffffffffffffffffffffff1663150b7a02611477610d9d565b8786866040518563ffffffff1660e01b81526004016114999493929190611db2565b602060405180830381600087803b1580156114b357600080fd5b505af19250505080156114e457506040513d601f19601f820116820180604052508101906114e19190611a46565b60015b611567573d8060008114611514576040519150601f19603f3d011682016040523d82523d6000602084013e611519565b606091505b5060008151141561155f576040517f08c379a000000000000000000000000000000000000000000000000000000000815260040161155690611e3b565b60405180910390fd5b805181602001fd5b63150b7a0260e01b7bffffffffffffffffffffffffffffffffffffffffffffffffffffffff1916817bffffffffffffffffffffffffffffffffffffffffffffffffffffffff1916149150506115bc565b600190505b949350505050565b600073ffffffffffffffffffffffffffffffffffffffff168273ffffffffffffffffffffffffffffffffffffffff161415611634576040517f08c379a000000000000000000000000000000000000000000000000000000000815260040161162b90611f5b565b60405180910390fd5b61163d81610d31565b1561167d576040517f08c379a000000000000000000000000000000000000000000000000000000000815260040161167490611e5b565b60405180910390fd5b611689600083836113cd565b6001600360008473ffffffffffffffffffffffffffffffffffffffff1673ffffffffffffffffffffffffffffffffffffffff16815260200190815260200160002060008282546116d991906120af565b92505081905550816002600083815260200190815260200160002060006101000a81548173ffffffffffffffffffffffffffffffffffffffff021916908373ffffffffffffffffffffffffffffffffffffffff160217905550808273ffffffffffffffffffffffffffffffffffffffff16600073ffffffffffffffffffffffffffffffffffffffff167fddf252ad1be2c89b69c2b068fc378daa952ba7f163c4a11628f55a4df523b3ef60405160405180910390a45050565b600080823b905060008111915050919050565b60006117b86117b38461203b565b612016565b9050828152602081018484840111156117d057600080fd5b6117db8482856121de565b509392505050565b6000813590506117f2816127d3565b92915050565b600081359050611807816127ea565b92915050565b60008135905061181c81612801565b92915050565b60008151905061183181612801565b92915050565b600082601f83011261184857600080fd5b81356118588482602086016117a5565b91505092915050565b60008135905061187081612818565b92915050565b60006020828403121561188857600080fd5b6000611896848285016117e3565b91505092915050565b600080604083850312156118b257600080fd5b60006118c0858286016117e3565b92505060206118d1858286016117e3565b9150509250929050565b6000806000606084860312156118f057600080fd5b60006118fe868287016117e3565b935050602061190f868287016117e3565b925050604061192086828701611861565b9150509250925092565b6000806000806080858703121561194057600080fd5b600061194e878288016117e3565b945050602061195f878288016117e3565b935050604061197087828801611861565b925050606085013567ffffffffffffffff81111561198d57600080fd5b61199987828801611837565b91505092959194509250565b600080604083850312156119b857600080fd5b60006119c6858286016117e3565b92505060206119d7858286016117f8565b9150509250929050565b600080604083850312156119f457600080fd5b6000611a02858286016117e3565b9250506020611a1385828601611861565b9150509250929050565b600060208284031215611a2f57600080fd5b6000611a3d8482850161180d565b91505092915050565b600060208284031215611a5857600080fd5b6000611a6684828501611822565b91505092915050565b600060208284031215611a8157600080fd5b6000611a8f84828501611861565b91505092915050565b611aa18161216a565b82525050565b611ab08161217c565b82525050565b6000611ac18261206c565b611acb8185612082565b9350611adb8185602086016121ed565b611ae4816123b9565b840191505092915050565b6000611afa82612077565b611b048185612093565b9350611b148185602086016121ed565b611b1d816123b9565b840191505092915050565b6000611b3382612077565b611b3d81856120a4565b9350611b4d8185602086016121ed565b80840191505092915050565b6000611b66603283612093565b9150611b71826123ca565b604082019050919050565b6000611b89601c83612093565b9150611b9482612419565b602082019050919050565b6000611bac602483612093565b9150611bb782612442565b604082019050919050565b6000611bcf601983612093565b9150611bda82612491565b602082019050919050565b6000611bf2602c83612093565b9150611bfd826124ba565b604082019050919050565b6000611c15603883612093565b9150611c2082612509565b604082019050919050565b6000611c38602a83612093565b9150611c4382612558565b604082019050919050565b6000611c5b601583612093565b9150611c66826125a7565b602082019050919050565b6000611c7e602983612093565b9150611c89826125d0565b604082019050919050565b6000611ca1602083612093565b9150611cac8261261f565b602082019050919050565b6000611cc4602c83612093565b9150611ccf82612648565b604082019050919050565b6000611ce7602983612093565b9150611cf282612697565b604082019050919050565b6000611d0a602183612093565b9150611d15826126e6565b604082019050919050565b6000611d2d603183612093565b9150611d3882612735565b604082019050919050565b6000611d506032836120a4565b9150611d5b82612784565b603282019050919050565b611d6f816121d4565b82525050565b6000611d8082611d43565b9150611d8c8284611b28565b915081905092915050565b6000602082019050611dac6000830184611a98565b92915050565b6000608082019050611dc76000830187611a98565b611dd46020830186611a98565b611de16040830185611d66565b8181036060830152611df38184611ab6565b905095945050505050565b6000602082019050611e136000830184611aa7565b92915050565b60006020820190508181036000830152611e338184611aef565b905092915050565b60006020820190508181036000830152611e5481611b59565b9050919050565b60006020820190508181036000830152611e7481611b7c565b9050919050565b60006020820190508181036000830152611e9481611b9f565b9050919050565b60006020820190508181036000830152611eb481611bc2565b9050919050565b60006020820190508181036000830152611ed481611be5565b9050919050565b60006020820190508181036000830152611ef481611c08565b9050919050565b60006020820190508181036000830152611f1481611c2b565b9050919050565b60006020820190508181036000830152611f3481611c4e565b9050919050565b60006020820190508181036000830152611f5481611c71565b9050919050565b60006020820190508181036000830152611f7481611c94565b9050919050565b60006020820190508181036000830152611f9481611cb7565b9050919050565b60006020820190508181036000830152611fb481611cda565b9050919050565b60006020820190508181036000830152611fd481611cfd565b9050919050565b60006020820190508181036000830152611ff481611d20565b9050919050565b60006020820190506120106000830184611d66565b92915050565b6000612020612031565b905061202c8282612252565b919050565b6000604051905090565b600067ffffffffffffffff8211156120565761205561238a565b5b61205f826123b9565b9050602081019050919050565b600081519050919050565b600081519050919050565b600082825260208201905092915050565b600082825260208201905092915050565b600081905092915050565b60006120ba826121d4565b91506120c5836121d4565b9250827fffffffffffffffffffffffffffffffffffffffffffffffffffffffffffffffff038211156120fa576120f96122fd565b5b828201905092915050565b6000612110826121d4565b915061211b836121d4565b92508261212b5761212a61232c565b5b828204905092915050565b6000612141826121d4565b915061214c836121d4565b92508282101561215f5761215e6122fd565b5b828203905092915050565b6000612175826121b4565b9050919050565b60008115159050919050565b60007fffffffff0000000000000000000000000000000000000000000000000000000082169050919050565b600073ffffffffffffffffffffffffffffffffffffffff82169050919050565b6000819050919050565b82818337600083830152505050565b60005b8381101561220b5780820151818401526020810190506121f0565b8381111561221a576000848401525b50505050565b6000600282049050600182168061223857607f821691505b6020821081141561224c5761224b61235b565b5b50919050565b61225b826123b9565b810181811067ffffffffffffffff8211171561227a5761227961238a565b5b80604052505050565b600061228e826121d4565b91507fffffffffffffffffffffffffffffffffffffffffffffffffffffffffffffffff8214156122c1576122c06122fd565b5b600182019050919050565b60006122d7826121d4565b91506122e2836121d4565b9250826122f2576122f161232c565b5b828206905092915050565b7f4e487b7100000000000000000000000000000000000000000000000000000000600052601160045260246000fd5b7f4e487b7100000000000000000000000000000000000000000000000000000000600052601260045260246000fd5b7f4e487b7100000000000000000000000000000000000000000000000000000000600052602260045260246000fd5b7f4e487b7100000000000000000000000000000000000000000000000000000000600052604160045260246000fd5b6000601f19601f8301169050919050565b7f4552433732313a207472616e7366657220746f206e6f6e20455243373231526560008201527f63656976657220696d706c656d656e7465720000000000000000000000000000602082015250565b7f4552433732313a20746f6b656e20616c7265616479206d696e74656400000000600082015250565b7f4552433732313a207472616e7366657220746f20746865207a65726f2061646460008201527f7265737300000000000000000000000000000000000000000000000000000000602082015250565b7f4552433732313a20617070726f766520746f2063616c6c657200000000000000600082015250565b7f4552433732313a206f70657261746f7220717565727920666f72206e6f6e657860008201527f697374656e7420746f6b656e0000000000000000000000000000000000000000602082015250565b7f4552433732313a20617070726f76652063616c6c6572206973206e6f74206f7760008201527f6e6572206e6f7220617070726f76656420666f7220616c6c0000000000000000602082015250565b7f4552433732313a2062616c616e636520717565727920666f7220746865207a6560008201527f726f206164647265737300000000000000000000000000000000000000000000602082015250565b7f41766174617220616c7265616479206d696e7465640000000000000000000000600082015250565b7f4552433732313a206f776e657220717565727920666f72206e6f6e657869737460008201527f656e7420746f6b656e0000000000000000000000000000000000000000000000602082015250565b7f4552433732313a206d696e7420746f20746865207a65726f2061646472657373600082015250565b7f4552433732313a20617070726f76656420717565727920666f72206e6f6e657860008201527f697374656e7420746f6b656e0000000000000000000000000000000000000000602082015250565b7f4552433732313a207472616e73666572206f6620746f6b656e2074686174206960008201527f73206e6f74206f776e0000000000000000000000000000000000000000000000602082015250565b7f4552433732313a20617070726f76616c20746f2063757272656e74206f776e6560008201527f7200000000000000000000000000000000000000000000000000000000000000602082015250565b7f4552433732313a207472616e736665722063616c6c6572206973206e6f74206f60008201527f776e6572206e6f7220617070726f766564000000000000000000000000000000602082015250565b7f68747470733a2f2f67616d656f6e617661746172732e6a75616e616e6761726960008201527f74612e636f6d2f6170692f6176617461722f0000000000000000000000000000602082015250565b6127dc8161216a565b81146127e757600080fd5b50565b6127f38161217c565b81146127fe57600080fd5b50565b61280a81612188565b811461281557600080fd5b50565b612821816121d4565b811461282c57600080fd5b5056fea26469706673582212207a08ec492241dfb422996d76ef9ca9f1683cbe342504d633055dae9762ee14f864736f6c63430008040033",
  "linkReferences": {},
  "deployedLinkReferences": {}
}